{
  "_format": "hh-sol-artifact-1",
  "contractName": "AnimatronikContract",
  "sourceName": "contracts/Animatronik.sol",
  "abi": [
    {
      "inputs": [],
      "stateMutability": "nonpayable",
      "type": "constructor"
    },
    {
      "anonymous": false,
      "inputs": [
        {
          "indexed": true,
          "internalType": "address",
          "name": "owner",
          "type": "address"
        },
        {
          "indexed": true,
          "internalType": "address",
          "name": "approved",
          "type": "address"
        },
        {
          "indexed": true,
          "internalType": "uint256",
          "name": "tokenId",
          "type": "uint256"
        }
      ],
      "name": "Approval",
      "type": "event"
    },
    {
      "anonymous": false,
      "inputs": [
        {
          "indexed": true,
          "internalType": "address",
          "name": "owner",
          "type": "address"
        },
        {
          "indexed": true,
          "internalType": "address",
          "name": "operator",
          "type": "address"
        },
        {
          "indexed": false,
          "internalType": "bool",
          "name": "approved",
          "type": "bool"
        }
      ],
      "name": "ApprovalForAll",
      "type": "event"
    },
    {
      "anonymous": false,
      "inputs": [
        {
          "indexed": true,
          "internalType": "address",
          "name": "previousOwner",
          "type": "address"
        },
        {
          "indexed": true,
          "internalType": "address",
          "name": "newOwner",
          "type": "address"
        }
      ],
      "name": "OwnershipTransferred",
      "type": "event"
    },
    {
      "anonymous": false,
      "inputs": [
        {
          "indexed": false,
          "internalType": "address",
          "name": "account",
          "type": "address"
        }
      ],
      "name": "Paused",
      "type": "event"
    },
    {
      "anonymous": false,
      "inputs": [
        {
          "indexed": true,
          "internalType": "address",
          "name": "from",
          "type": "address"
        },
        {
          "indexed": true,
          "internalType": "address",
          "name": "to",
          "type": "address"
        },
        {
          "indexed": true,
          "internalType": "uint256",
          "name": "tokenId",
          "type": "uint256"
        }
      ],
      "name": "Transfer",
      "type": "event"
    },
    {
      "anonymous": false,
      "inputs": [
        {
          "indexed": false,
          "internalType": "address",
          "name": "account",
          "type": "address"
        }
      ],
      "name": "Unpaused",
      "type": "event"
    },
    {
      "inputs": [
        {
          "internalType": "address",
          "name": "to",
          "type": "address"
        },
        {
          "internalType": "uint256",
          "name": "tokenId",
          "type": "uint256"
        }
      ],
      "name": "approve",
      "outputs": [],
      "stateMutability": "nonpayable",
      "type": "function"
    },
    {
      "inputs": [
        {
          "internalType": "address",
          "name": "owner",
          "type": "address"
        }
      ],
      "name": "balanceOf",
      "outputs": [
        {
          "internalType": "uint256",
          "name": "",
          "type": "uint256"
        }
      ],
      "stateMutability": "view",
      "type": "function"
    },
    {
      "inputs": [
        {
          "internalType": "uint256",
          "name": "tokenId",
          "type": "uint256"
        }
      ],
      "name": "getApproved",
      "outputs": [
        {
          "internalType": "address",
          "name": "",
          "type": "address"
        }
      ],
      "stateMutability": "view",
      "type": "function"
    },
    {
      "inputs": [
        {
          "internalType": "address",
          "name": "owner",
          "type": "address"
        },
        {
          "internalType": "address",
          "name": "operator",
          "type": "address"
        }
      ],
      "name": "isApprovedForAll",
      "outputs": [
        {
          "internalType": "bool",
          "name": "",
          "type": "bool"
        }
      ],
      "stateMutability": "view",
      "type": "function"
    },
    {
      "inputs": [],
      "name": "name",
      "outputs": [
        {
          "internalType": "string",
          "name": "",
          "type": "string"
        }
      ],
      "stateMutability": "view",
      "type": "function"
    },
    {
      "inputs": [],
      "name": "owner",
      "outputs": [
        {
          "internalType": "address",
          "name": "",
          "type": "address"
        }
      ],
      "stateMutability": "view",
      "type": "function"
    },
    {
      "inputs": [
        {
          "internalType": "uint256",
          "name": "tokenId",
          "type": "uint256"
        }
      ],
      "name": "ownerOf",
      "outputs": [
        {
          "internalType": "address",
          "name": "",
          "type": "address"
        }
      ],
      "stateMutability": "view",
      "type": "function"
    },
    {
      "inputs": [],
      "name": "pause",
      "outputs": [],
      "stateMutability": "nonpayable",
      "type": "function"
    },
    {
      "inputs": [],
      "name": "paused",
      "outputs": [
        {
          "internalType": "bool",
          "name": "",
          "type": "bool"
        }
      ],
      "stateMutability": "view",
      "type": "function"
    },
    {
      "inputs": [],
      "name": "renounceOwnership",
      "outputs": [],
      "stateMutability": "nonpayable",
      "type": "function"
    },
    {
      "inputs": [
        {
          "internalType": "address",
          "name": "to",
          "type": "address"
        },
        {
          "internalType": "string",
          "name": "uri",
          "type": "string"
        }
      ],
      "name": "safeMint",
      "outputs": [],
      "stateMutability": "nonpayable",
      "type": "function"
    },
    {
      "inputs": [
        {
          "internalType": "address",
          "name": "from",
          "type": "address"
        },
        {
          "internalType": "address",
          "name": "to",
          "type": "address"
        },
        {
          "internalType": "uint256",
          "name": "tokenId",
          "type": "uint256"
        }
      ],
      "name": "safeTransferFrom",
      "outputs": [],
      "stateMutability": "nonpayable",
      "type": "function"
    },
    {
      "inputs": [
        {
          "internalType": "address",
          "name": "from",
          "type": "address"
        },
        {
          "internalType": "address",
          "name": "to",
          "type": "address"
        },
        {
          "internalType": "uint256",
          "name": "tokenId",
          "type": "uint256"
        },
        {
          "internalType": "bytes",
          "name": "data",
          "type": "bytes"
        }
      ],
      "name": "safeTransferFrom",
      "outputs": [],
      "stateMutability": "nonpayable",
      "type": "function"
    },
    {
      "inputs": [
        {
          "internalType": "address",
          "name": "operator",
          "type": "address"
        },
        {
          "internalType": "bool",
          "name": "approved",
          "type": "bool"
        }
      ],
      "name": "setApprovalForAll",
      "outputs": [],
      "stateMutability": "nonpayable",
      "type": "function"
    },
    {
      "inputs": [
        {
          "internalType": "bytes4",
          "name": "interfaceId",
          "type": "bytes4"
        }
      ],
      "name": "supportsInterface",
      "outputs": [
        {
          "internalType": "bool",
          "name": "",
          "type": "bool"
        }
      ],
      "stateMutability": "view",
      "type": "function"
    },
    {
      "inputs": [],
      "name": "symbol",
      "outputs": [
        {
          "internalType": "string",
          "name": "",
          "type": "string"
        }
      ],
      "stateMutability": "view",
      "type": "function"
    },
    {
      "inputs": [
        {
          "internalType": "uint256",
          "name": "index",
          "type": "uint256"
        }
      ],
      "name": "tokenByIndex",
      "outputs": [
        {
          "internalType": "uint256",
          "name": "",
          "type": "uint256"
        }
      ],
      "stateMutability": "view",
      "type": "function"
    },
    {
      "inputs": [
        {
          "internalType": "address",
          "name": "owner",
          "type": "address"
        },
        {
          "internalType": "uint256",
          "name": "index",
          "type": "uint256"
        }
      ],
      "name": "tokenOfOwnerByIndex",
      "outputs": [
        {
          "internalType": "uint256",
          "name": "",
          "type": "uint256"
        }
      ],
      "stateMutability": "view",
      "type": "function"
    },
    {
      "inputs": [
        {
          "internalType": "uint256",
          "name": "tokenId",
          "type": "uint256"
        }
      ],
      "name": "tokenURI",
      "outputs": [
        {
          "internalType": "string",
          "name": "",
          "type": "string"
        }
      ],
      "stateMutability": "view",
      "type": "function"
    },
    {
      "inputs": [],
      "name": "totalSupply",
      "outputs": [
        {
          "internalType": "uint256",
          "name": "",
          "type": "uint256"
        }
      ],
      "stateMutability": "view",
      "type": "function"
    },
    {
      "inputs": [
        {
          "internalType": "address",
          "name": "from",
          "type": "address"
        },
        {
          "internalType": "address",
          "name": "to",
          "type": "address"
        },
        {
          "internalType": "uint256",
          "name": "tokenId",
          "type": "uint256"
        }
      ],
      "name": "transferFrom",
      "outputs": [],
      "stateMutability": "nonpayable",
      "type": "function"
    },
    {
      "inputs": [
        {
          "internalType": "address",
          "name": "newOwner",
          "type": "address"
        }
      ],
      "name": "transferOwnership",
      "outputs": [],
      "stateMutability": "nonpayable",
      "type": "function"
    },
    {
      "inputs": [],
      "name": "unpause",
      "outputs": [],
      "stateMutability": "nonpayable",
      "type": "function"
    }
  ],
  "bytecode": "0x60806040523480156200001157600080fd5b506040518060400160405280600b81526020017f416e696d6174726f6e696b0000000000000000000000000000000000000000008152506040518060400160405280600581526020017f414e494d41000000000000000000000000000000000000000000000000000000815250816000908051906020019062000096929190620001c1565b508060019080519060200190620000af929190620001c1565b5050506000600b60006101000a81548160ff021916908315150217905550620000ed620000e1620000f360201b60201c565b620000fb60201b60201c565b620002d6565b600033905090565b6000600b60019054906101000a900473ffffffffffffffffffffffffffffffffffffffff16905081600b60016101000a81548173ffffffffffffffffffffffffffffffffffffffff021916908373ffffffffffffffffffffffffffffffffffffffff1602179055508173ffffffffffffffffffffffffffffffffffffffff168173ffffffffffffffffffffffffffffffffffffffff167f8be0079c531659141344cd1fd0a4f28419497f9722a3daafe3b4186f6b6457e060405160405180910390a35050565b828054620001cf90620002a0565b90600052602060002090601f016020900481019282620001f357600085556200023f565b82601f106200020e57805160ff19168380011785556200023f565b828001600101855582156200023f579182015b828111156200023e57825182559160200191906001019062000221565b5b5090506200024e919062000252565b5090565b5b808211156200026d57600081600090555060010162000253565b5090565b7f4e487b7100000000000000000000000000000000000000000000000000000000600052602260045260246000fd5b60006002820490506001821680620002b957607f821691505b60208210811415620002d057620002cf62000271565b5b50919050565b613a1880620002e66000396000f3fe608060405234801561001057600080fd5b506004361061014d5760003560e01c80636352211e116100c3578063a22cb4651161007c578063a22cb4651461037a578063b88d4fde14610396578063c87b56dd146103b2578063d204c45e146103e2578063e985e9c5146103fe578063f2fde38b1461042e5761014d565b80636352211e146102ca57806370a08231146102fa578063715018a61461032a5780638456cb59146103345780638da5cb5b1461033e57806395d89b411461035c5761014d565b806323b872dd1161011557806323b872dd1461020a5780632f745c59146102265780633f4ba83a1461025657806342842e0e146102605780634f6ccce71461027c5780635c975abb146102ac5761014d565b806301ffc9a71461015257806306fdde0314610182578063081812fc146101a0578063095ea7b3146101d057806318160ddd146101ec575b600080fd5b61016c600480360381019061016791906126d8565b61044a565b6040516101799190612720565b60405180910390f35b61018a61045c565b60405161019791906127d4565b60405180910390f35b6101ba60048036038101906101b5919061282c565b6104ee565b6040516101c7919061289a565b60405180910390f35b6101ea60048036038101906101e591906128e1565b610534565b005b6101f461064c565b6040516102019190612930565b60405180910390f35b610224600480360381019061021f919061294b565b610659565b005b610240600480360381019061023b91906128e1565b6106b9565b60405161024d9190612930565b60405180910390f35b61025e61075e565b005b61027a6004803603810190610275919061294b565b610770565b005b6102966004803603810190610291919061282c565b610790565b6040516102a39190612930565b60405180910390f35b6102b4610801565b6040516102c19190612720565b60405180910390f35b6102e460048036038101906102df919061282c565b610818565b6040516102f1919061289a565b60405180910390f35b610314600480360381019061030f919061299e565b61089f565b6040516103219190612930565b60405180910390f35b610332610957565b005b61033c61096b565b005b61034661097d565b604051610353919061289a565b60405180910390f35b6103646109a7565b60405161037191906127d4565b60405180910390f35b610394600480360381019061038f91906129f7565b610a39565b005b6103b060048036038101906103ab9190612b6c565b610a4f565b005b6103cc60048036038101906103c7919061282c565b610ab1565b6040516103d991906127d4565b60405180910390f35b6103fc60048036038101906103f79190612c90565b610ac3565b005b61041860048036038101906104139190612cec565b610af4565b6040516104259190612720565b60405180910390f35b6104486004803603810190610443919061299e565b610b88565b005b600061045582610c0c565b9050919050565b60606000805461046b90612d5b565b80601f016020809104026020016040519081016040528092919081815260200182805461049790612d5b565b80156104e45780601f106104b9576101008083540402835291602001916104e4565b820191906000526020600020905b8154815290600101906020018083116104c757829003601f168201915b5050505050905090565b60006104f982610c86565b6004600083815260200190815260200160002060009054906101000a900473ffffffffffffffffffffffffffffffffffffffff169050919050565b600061053f82610818565b90508073ffffffffffffffffffffffffffffffffffffffff168373ffffffffffffffffffffffffffffffffffffffff1614156105b0576040517f08c379a00000000000000000000000000000000000000000000000000000000081526004016105a790612dff565b60405180910390fd5b8073ffffffffffffffffffffffffffffffffffffffff166105cf610cd1565b73ffffffffffffffffffffffffffffffffffffffff1614806105fe57506105fd816105f8610cd1565b610af4565b5b61063d576040517f08c379a000000000000000000000000000000000000000000000000000000000815260040161063490612e91565b60405180910390fd5b6106478383610cd9565b505050565b6000600880549050905090565b61066a610664610cd1565b82610d92565b6106a9576040517f08c379a00000000000000000000000000000000000000000000000000000000081526004016106a090612f23565b60405180910390fd5b6106b4838383610e27565b505050565b60006106c48361089f565b8210610705576040517f08c379a00000000000000000000000000000000000000000000000000000000081526004016106fc90612fb5565b60405180910390fd5b600660008473ffffffffffffffffffffffffffffffffffffffff1673ffffffffffffffffffffffffffffffffffffffff168152602001908152602001600020600083815260200190815260200160002054905092915050565b610766611121565b61076e61119f565b565b61078b83838360405180602001604052806000815250610a4f565b505050565b600061079a61064c565b82106107db576040517f08c379a00000000000000000000000000000000000000000000000000000000081526004016107d290613047565b60405180910390fd5b600882815481106107ef576107ee613067565b5b90600052602060002001549050919050565b6000600b60009054906101000a900460ff16905090565b60008061082483611202565b9050600073ffffffffffffffffffffffffffffffffffffffff168173ffffffffffffffffffffffffffffffffffffffff161415610896576040517f08c379a000000000000000000000000000000000000000000000000000000000815260040161088d906130e2565b60405180910390fd5b80915050919050565b60008073ffffffffffffffffffffffffffffffffffffffff168273ffffffffffffffffffffffffffffffffffffffff161415610910576040517f08c379a000000000000000000000000000000000000000000000000000000000815260040161090790613174565b60405180910390fd5b600360008373ffffffffffffffffffffffffffffffffffffffff1673ffffffffffffffffffffffffffffffffffffffff168152602001908152602001600020549050919050565b61095f611121565b610969600061123f565b565b610973611121565b61097b611305565b565b6000600b60019054906101000a900473ffffffffffffffffffffffffffffffffffffffff16905090565b6060600180546109b690612d5b565b80601f01602080910402602001604051908101604052809291908181526020018280546109e290612d5b565b8015610a2f5780601f10610a0457610100808354040283529160200191610a2f565b820191906000526020600020905b815481529060010190602001808311610a1257829003601f168201915b5050505050905090565b610a4b610a44610cd1565b8383611368565b5050565b610a60610a5a610cd1565b83610d92565b610a9f576040517f08c379a0000000000000000000000000000000000000000000000000000000008152600401610a9690612f23565b60405180910390fd5b610aab848484846114d5565b50505050565b6060610abc82611531565b9050919050565b6000610acf600c611644565b9050610adb600c611652565b610ae58382611668565b610aef8183611686565b505050565b6000600560008473ffffffffffffffffffffffffffffffffffffffff1673ffffffffffffffffffffffffffffffffffffffff16815260200190815260200160002060008373ffffffffffffffffffffffffffffffffffffffff1673ffffffffffffffffffffffffffffffffffffffff16815260200190815260200160002060009054906101000a900460ff16905092915050565b610b90611121565b600073ffffffffffffffffffffffffffffffffffffffff168173ffffffffffffffffffffffffffffffffffffffff161415610c00576040517f08c379a0000000000000000000000000000000000000000000000000000000008152600401610bf790613206565b60405180910390fd5b610c098161123f565b50565b60007f780e9d63000000000000000000000000000000000000000000000000000000007bffffffffffffffffffffffffffffffffffffffffffffffffffffffff1916827bffffffffffffffffffffffffffffffffffffffffffffffffffffffff19161480610c7f5750610c7e826116fa565b5b9050919050565b610c8f816117dc565b610cce576040517f08c379a0000000000000000000000000000000000000000000000000000000008152600401610cc5906130e2565b60405180910390fd5b50565b600033905090565b816004600083815260200190815260200160002060006101000a81548173ffffffffffffffffffffffffffffffffffffffff021916908373ffffffffffffffffffffffffffffffffffffffff160217905550808273ffffffffffffffffffffffffffffffffffffffff16610d4c83610818565b73ffffffffffffffffffffffffffffffffffffffff167f8c5be1e5ebec7d5bd14f71427d1e84f3dd0314c0f7b2291e5b200ac8c7c3b92560405160405180910390a45050565b600080610d9e83610818565b90508073ffffffffffffffffffffffffffffffffffffffff168473ffffffffffffffffffffffffffffffffffffffff161480610de05750610ddf8185610af4565b5b80610e1e57508373ffffffffffffffffffffffffffffffffffffffff16610e06846104ee565b73ffffffffffffffffffffffffffffffffffffffff16145b91505092915050565b8273ffffffffffffffffffffffffffffffffffffffff16610e4782610818565b73ffffffffffffffffffffffffffffffffffffffff1614610e9d576040517f08c379a0000000000000000000000000000000000000000000000000000000008152600401610e9490613298565b60405180910390fd5b600073ffffffffffffffffffffffffffffffffffffffff168273ffffffffffffffffffffffffffffffffffffffff161415610f0d576040517f08c379a0000000000000000000000000000000000000000000000000000000008152600401610f049061332a565b60405180910390fd5b610f1a838383600161181d565b8273ffffffffffffffffffffffffffffffffffffffff16610f3a82610818565b73ffffffffffffffffffffffffffffffffffffffff1614610f90576040517f08c379a0000000000000000000000000000000000000000000000000000000008152600401610f8790613298565b60405180910390fd5b6004600082815260200190815260200160002060006101000a81549073ffffffffffffffffffffffffffffffffffffffff02191690556001600360008573ffffffffffffffffffffffffffffffffffffffff1673ffffffffffffffffffffffffffffffffffffffff168152602001908152602001600020600082825403925050819055506001600360008473ffffffffffffffffffffffffffffffffffffffff1673ffffffffffffffffffffffffffffffffffffffff16815260200190815260200160002060008282540192505081905550816002600083815260200190815260200160002060006101000a81548173ffffffffffffffffffffffffffffffffffffffff021916908373ffffffffffffffffffffffffffffffffffffffff160217905550808273ffffffffffffffffffffffffffffffffffffffff168473ffffffffffffffffffffffffffffffffffffffff167fddf252ad1be2c89b69c2b068fc378daa952ba7f163c4a11628f55a4df523b3ef60405160405180910390a461111c8383836001611837565b505050565b611129610cd1565b73ffffffffffffffffffffffffffffffffffffffff1661114761097d565b73ffffffffffffffffffffffffffffffffffffffff161461119d576040517f08c379a000000000000000000000000000000000000000000000000000000000815260040161119490613396565b60405180910390fd5b565b6111a761183d565b6000600b60006101000a81548160ff0219169083151502179055507f5db9ee0a495bf2e6ff9c91a7834c1ba4fdd244a5e8aa4e537bd38aeae4b073aa6111eb610cd1565b6040516111f8919061289a565b60405180910390a1565b60006002600083815260200190815260200160002060009054906101000a900473ffffffffffffffffffffffffffffffffffffffff169050919050565b6000600b60019054906101000a900473ffffffffffffffffffffffffffffffffffffffff16905081600b60016101000a81548173ffffffffffffffffffffffffffffffffffffffff021916908373ffffffffffffffffffffffffffffffffffffffff1602179055508173ffffffffffffffffffffffffffffffffffffffff168173ffffffffffffffffffffffffffffffffffffffff167f8be0079c531659141344cd1fd0a4f28419497f9722a3daafe3b4186f6b6457e060405160405180910390a35050565b61130d611886565b6001600b60006101000a81548160ff0219169083151502179055507f62e78cea01bee320cd4e420270b5ea74000d11b0c9f74754ebdbfc544b05a258611351610cd1565b60405161135e919061289a565b60405180910390a1565b8173ffffffffffffffffffffffffffffffffffffffff168373ffffffffffffffffffffffffffffffffffffffff1614156113d7576040517f08c379a00000000000000000000000000000000000000000000000000000000081526004016113ce90613402565b60405180910390fd5b80600560008573ffffffffffffffffffffffffffffffffffffffff1673ffffffffffffffffffffffffffffffffffffffff16815260200190815260200160002060008473ffffffffffffffffffffffffffffffffffffffff1673ffffffffffffffffffffffffffffffffffffffff16815260200190815260200160002060006101000a81548160ff0219169083151502179055508173ffffffffffffffffffffffffffffffffffffffff168373ffffffffffffffffffffffffffffffffffffffff167f17307eab39ab6107e8899845ad3d59bd9653f200f220920489ca2b5937696c31836040516114c89190612720565b60405180910390a3505050565b6114e0848484610e27565b6114ec848484846118d0565b61152b576040517f08c379a000000000000000000000000000000000000000000000000000000000815260040161152290613494565b60405180910390fd5b50505050565b606061153c82610c86565b6000600a6000848152602001908152602001600020805461155c90612d5b565b80601f016020809104026020016040519081016040528092919081815260200182805461158890612d5b565b80156115d55780601f106115aa576101008083540402835291602001916115d5565b820191906000526020600020905b8154815290600101906020018083116115b857829003601f168201915b5050505050905060006115e6611a67565b90506000815114156115fc57819250505061163f565b6000825111156116315780826040516020016116199291906134f0565b6040516020818303038152906040529250505061163f565b61163a84611aa4565b925050505b919050565b600081600001549050919050565b6001816000016000828254019250508190555050565b611682828260405180602001604052806000815250611b0c565b5050565b61168f826117dc565b6116ce576040517f08c379a00000000000000000000000000000000000000000000000000000000081526004016116c590613586565b60405180910390fd5b80600a600084815260200190815260200160002090805190602001906116f59291906125c9565b505050565b60007f80ac58cd000000000000000000000000000000000000000000000000000000007bffffffffffffffffffffffffffffffffffffffffffffffffffffffff1916827bffffffffffffffffffffffffffffffffffffffffffffffffffffffff191614806117c557507f5b5e139f000000000000000000000000000000000000000000000000000000007bffffffffffffffffffffffffffffffffffffffffffffffffffffffff1916827bffffffffffffffffffffffffffffffffffffffffffffffffffffffff1916145b806117d557506117d482611b67565b5b9050919050565b60008073ffffffffffffffffffffffffffffffffffffffff166117fe83611202565b73ffffffffffffffffffffffffffffffffffffffff1614159050919050565b611825611886565b61183184848484611bd1565b50505050565b50505050565b611845610801565b611884576040517f08c379a000000000000000000000000000000000000000000000000000000000815260040161187b906135f2565b60405180910390fd5b565b61188e610801565b156118ce576040517f08c379a00000000000000000000000000000000000000000000000000000000081526004016118c59061365e565b60405180910390fd5b565b60006118f18473ffffffffffffffffffffffffffffffffffffffff16611d31565b15611a5a578373ffffffffffffffffffffffffffffffffffffffff1663150b7a0261191a610cd1565b8786866040518563ffffffff1660e01b815260040161193c94939291906136d3565b602060405180830381600087803b15801561195657600080fd5b505af192505050801561198757506040513d601f19601f820116820180604052508101906119849190613734565b60015b611a0a573d80600081146119b7576040519150601f19603f3d011682016040523d82523d6000602084013e6119bc565b606091505b50600081511415611a02576040517f08c379a00000000000000000000000000000000000000000000000000000000081526004016119f990613494565b60405180910390fd5b805181602001fd5b63150b7a0260e01b7bffffffffffffffffffffffffffffffffffffffffffffffffffffffff1916817bffffffffffffffffffffffffffffffffffffffffffffffffffffffff191614915050611a5f565b600190505b949350505050565b60606040518060400160405280600781526020017f697066733a2f2f00000000000000000000000000000000000000000000000000815250905090565b6060611aaf82610c86565b6000611ab9611a67565b90506000815111611ad95760405180602001604052806000815250611b04565b80611ae384611d54565b604051602001611af49291906134f0565b6040516020818303038152906040525b915050919050565b611b168383611e2c565b611b2360008484846118d0565b611b62576040517f08c379a0000000000000000000000000000000000000000000000000000000008152600401611b5990613494565b60405180910390fd5b505050565b60007f01ffc9a7000000000000000000000000000000000000000000000000000000007bffffffffffffffffffffffffffffffffffffffffffffffffffffffff1916827bffffffffffffffffffffffffffffffffffffffffffffffffffffffff1916149050919050565b611bdd8484848461204a565b6001811115611c21576040517f08c379a0000000000000000000000000000000000000000000000000000000008152600401611c18906137d3565b60405180910390fd5b6000829050600073ffffffffffffffffffffffffffffffffffffffff168573ffffffffffffffffffffffffffffffffffffffff161415611c6957611c6481612170565b611ca8565b8373ffffffffffffffffffffffffffffffffffffffff168573ffffffffffffffffffffffffffffffffffffffff1614611ca757611ca685826121b9565b5b5b600073ffffffffffffffffffffffffffffffffffffffff168473ffffffffffffffffffffffffffffffffffffffff161415611ceb57611ce681612326565b611d2a565b8473ffffffffffffffffffffffffffffffffffffffff168473ffffffffffffffffffffffffffffffffffffffff1614611d2957611d2884826123f7565b5b5b5050505050565b6000808273ffffffffffffffffffffffffffffffffffffffff163b119050919050565b606060006001611d6384612476565b01905060008167ffffffffffffffff811115611d8257611d81612a41565b5b6040519080825280601f01601f191660200182016040528015611db45781602001600182028036833780820191505090505b509050600082602001820190505b600115611e21578080600190039150507f3031323334353637383961626364656600000000000000000000000000000000600a86061a8153600a8581611e0b57611e0a6137f3565b5b0494506000851415611e1c57611e21565b611dc2565b819350505050919050565b600073ffffffffffffffffffffffffffffffffffffffff168273ffffffffffffffffffffffffffffffffffffffff161415611e9c576040517f08c379a0000000000000000000000000000000000000000000000000000000008152600401611e939061386e565b60405180910390fd5b611ea5816117dc565b15611ee5576040517f08c379a0000000000000000000000000000000000000000000000000000000008152600401611edc906138da565b60405180910390fd5b611ef360008383600161181d565b611efc816117dc565b15611f3c576040517f08c379a0000000000000000000000000000000000000000000000000000000008152600401611f33906138da565b60405180910390fd5b6001600360008473ffffffffffffffffffffffffffffffffffffffff1673ffffffffffffffffffffffffffffffffffffffff16815260200190815260200160002060008282540192505081905550816002600083815260200190815260200160002060006101000a81548173ffffffffffffffffffffffffffffffffffffffff021916908373ffffffffffffffffffffffffffffffffffffffff160217905550808273ffffffffffffffffffffffffffffffffffffffff16600073ffffffffffffffffffffffffffffffffffffffff167fddf252ad1be2c89b69c2b068fc378daa952ba7f163c4a11628f55a4df523b3ef60405160405180910390a4612046600083836001611837565b5050565b600181111561216a57600073ffffffffffffffffffffffffffffffffffffffff168473ffffffffffffffffffffffffffffffffffffffff16146120de5780600360008673ffffffffffffffffffffffffffffffffffffffff1673ffffffffffffffffffffffffffffffffffffffff16815260200190815260200160002060008282546120d69190613929565b925050819055505b600073ffffffffffffffffffffffffffffffffffffffff168373ffffffffffffffffffffffffffffffffffffffff16146121695780600360008573ffffffffffffffffffffffffffffffffffffffff1673ffffffffffffffffffffffffffffffffffffffff1681526020019081526020016000206000828254612161919061395d565b925050819055505b5b50505050565b6008805490506009600083815260200190815260200160002081905550600881908060018154018082558091505060019003906000526020600020016000909190919091505550565b600060016121c68461089f565b6121d09190613929565b90506000600760008481526020019081526020016000205490508181146122b5576000600660008673ffffffffffffffffffffffffffffffffffffffff1673ffffffffffffffffffffffffffffffffffffffff168152602001908152602001600020600084815260200190815260200160002054905080600660008773ffffffffffffffffffffffffffffffffffffffff1673ffffffffffffffffffffffffffffffffffffffff168152602001908152602001600020600084815260200190815260200160002081905550816007600083815260200190815260200160002081905550505b6007600084815260200190815260200160002060009055600660008573ffffffffffffffffffffffffffffffffffffffff1673ffffffffffffffffffffffffffffffffffffffff16815260200190815260200160002060008381526020019081526020016000206000905550505050565b6000600160088054905061233a9190613929565b905060006009600084815260200190815260200160002054905060006008838154811061236a57612369613067565b5b90600052602060002001549050806008838154811061238c5761238b613067565b5b9060005260206000200181905550816009600083815260200190815260200160002081905550600960008581526020019081526020016000206000905560088054806123db576123da6139b3565b5b6001900381819060005260206000200160009055905550505050565b60006124028361089f565b905081600660008573ffffffffffffffffffffffffffffffffffffffff1673ffffffffffffffffffffffffffffffffffffffff168152602001908152602001600020600083815260200190815260200160002081905550806007600084815260200190815260200160002081905550505050565b600080600090507a184f03e93ff9f4daa797ed6e38ed64bf6a1f01000000000000000083106124d4577a184f03e93ff9f4daa797ed6e38ed64bf6a1f01000000000000000083816124ca576124c96137f3565b5b0492506040810190505b6d04ee2d6d415b85acef81000000008310612511576d04ee2d6d415b85acef81000000008381612507576125066137f3565b5b0492506020810190505b662386f26fc10000831061254057662386f26fc100008381612536576125356137f3565b5b0492506010810190505b6305f5e1008310612569576305f5e100838161255f5761255e6137f3565b5b0492506008810190505b612710831061258e576127108381612584576125836137f3565b5b0492506004810190505b606483106125b157606483816125a7576125a66137f3565b5b0492506002810190505b600a83106125c0576001810190505b80915050919050565b8280546125d590612d5b565b90600052602060002090601f0160209004810192826125f7576000855561263e565b82601f1061261057805160ff191683800117855561263e565b8280016001018555821561263e579182015b8281111561263d578251825591602001919060010190612622565b5b50905061264b919061264f565b5090565b5b80821115612668576000816000905550600101612650565b5090565b6000604051905090565b600080fd5b600080fd5b60007fffffffff0000000000000000000000000000000000000000000000000000000082169050919050565b6126b581612680565b81146126c057600080fd5b50565b6000813590506126d2816126ac565b92915050565b6000602082840312156126ee576126ed612676565b5b60006126fc848285016126c3565b91505092915050565b60008115159050919050565b61271a81612705565b82525050565b60006020820190506127356000830184612711565b92915050565b600081519050919050565b600082825260208201905092915050565b60005b8381101561277557808201518184015260208101905061275a565b83811115612784576000848401525b50505050565b6000601f19601f8301169050919050565b60006127a68261273b565b6127b08185612746565b93506127c0818560208601612757565b6127c98161278a565b840191505092915050565b600060208201905081810360008301526127ee818461279b565b905092915050565b6000819050919050565b612809816127f6565b811461281457600080fd5b50565b60008135905061282681612800565b92915050565b60006020828403121561284257612841612676565b5b600061285084828501612817565b91505092915050565b600073ffffffffffffffffffffffffffffffffffffffff82169050919050565b600061288482612859565b9050919050565b61289481612879565b82525050565b60006020820190506128af600083018461288b565b92915050565b6128be81612879565b81146128c957600080fd5b50565b6000813590506128db816128b5565b92915050565b600080604083850312156128f8576128f7612676565b5b6000612906858286016128cc565b925050602061291785828601612817565b9150509250929050565b61292a816127f6565b82525050565b60006020820190506129456000830184612921565b92915050565b60008060006060848603121561296457612963612676565b5b6000612972868287016128cc565b9350506020612983868287016128cc565b925050604061299486828701612817565b9150509250925092565b6000602082840312156129b4576129b3612676565b5b60006129c2848285016128cc565b91505092915050565b6129d481612705565b81146129df57600080fd5b50565b6000813590506129f1816129cb565b92915050565b60008060408385031215612a0e57612a0d612676565b5b6000612a1c858286016128cc565b9250506020612a2d858286016129e2565b9150509250929050565b600080fd5b600080fd5b7f4e487b7100000000000000000000000000000000000000000000000000000000600052604160045260246000fd5b612a798261278a565b810181811067ffffffffffffffff82111715612a9857612a97612a41565b5b80604052505050565b6000612aab61266c565b9050612ab78282612a70565b919050565b600067ffffffffffffffff821115612ad757612ad6612a41565b5b612ae08261278a565b9050602081019050919050565b82818337600083830152505050565b6000612b0f612b0a84612abc565b612aa1565b905082815260208101848484011115612b2b57612b2a612a3c565b5b612b36848285612aed565b509392505050565b600082601f830112612b5357612b52612a37565b5b8135612b63848260208601612afc565b91505092915050565b60008060008060808587031215612b8657612b85612676565b5b6000612b94878288016128cc565b9450506020612ba5878288016128cc565b9350506040612bb687828801612817565b925050606085013567ffffffffffffffff811115612bd757612bd661267b565b5b612be387828801612b3e565b91505092959194509250565b600067ffffffffffffffff821115612c0a57612c09612a41565b5b612c138261278a565b9050602081019050919050565b6000612c33612c2e84612bef565b612aa1565b905082815260208101848484011115612c4f57612c4e612a3c565b5b612c5a848285612aed565b509392505050565b600082601f830112612c7757612c76612a37565b5b8135612c87848260208601612c20565b91505092915050565b60008060408385031215612ca757612ca6612676565b5b6000612cb5858286016128cc565b925050602083013567ffffffffffffffff811115612cd657612cd561267b565b5b612ce285828601612c62565b9150509250929050565b60008060408385031215612d0357612d02612676565b5b6000612d11858286016128cc565b9250506020612d22858286016128cc565b9150509250929050565b7f4e487b7100000000000000000000000000000000000000000000000000000000600052602260045260246000fd5b60006002820490506001821680612d7357607f821691505b60208210811415612d8757612d86612d2c565b5b50919050565b7f4552433732313a20617070726f76616c20746f2063757272656e74206f776e6560008201527f7200000000000000000000000000000000000000000000000000000000000000602082015250565b6000612de9602183612746565b9150612df482612d8d565b604082019050919050565b60006020820190508181036000830152612e1881612ddc565b9050919050565b7f4552433732313a20617070726f76652063616c6c6572206973206e6f7420746f60008201527f6b656e206f776e6572206f7220617070726f76656420666f7220616c6c000000602082015250565b6000612e7b603d83612746565b9150612e8682612e1f565b604082019050919050565b60006020820190508181036000830152612eaa81612e6e565b9050919050565b7f4552433732313a2063616c6c6572206973206e6f7420746f6b656e206f776e6560008201527f72206f7220617070726f76656400000000000000000000000000000000000000602082015250565b6000612f0d602d83612746565b9150612f1882612eb1565b604082019050919050565b60006020820190508181036000830152612f3c81612f00565b9050919050565b7f455243373231456e756d657261626c653a206f776e657220696e646578206f7560008201527f74206f6620626f756e6473000000000000000000000000000000000000000000602082015250565b6000612f9f602b83612746565b9150612faa82612f43565b604082019050919050565b60006020820190508181036000830152612fce81612f92565b9050919050565b7f455243373231456e756d657261626c653a20676c6f62616c20696e646578206f60008201527f7574206f6620626f756e64730000000000000000000000000000000000000000602082015250565b6000613031602c83612746565b915061303c82612fd5565b604082019050919050565b6000602082019050818103600083015261306081613024565b9050919050565b7f4e487b7100000000000000000000000000000000000000000000000000000000600052603260045260246000fd5b7f4552433732313a20696e76616c696420746f6b656e2049440000000000000000600082015250565b60006130cc601883612746565b91506130d782613096565b602082019050919050565b600060208201905081810360008301526130fb816130bf565b9050919050565b7f4552433732313a2061646472657373207a65726f206973206e6f74206120766160008201527f6c6964206f776e65720000000000000000000000000000000000000000000000602082015250565b600061315e602983612746565b915061316982613102565b604082019050919050565b6000602082019050818103600083015261318d81613151565b9050919050565b7f4f776e61626c653a206e6577206f776e657220697320746865207a65726f206160008201527f6464726573730000000000000000000000000000000000000000000000000000602082015250565b60006131f0602683612746565b91506131fb82613194565b604082019050919050565b6000602082019050818103600083015261321f816131e3565b9050919050565b7f4552433732313a207472616e736665722066726f6d20696e636f72726563742060008201527f6f776e6572000000000000000000000000000000000000000000000000000000602082015250565b6000613282602583612746565b915061328d82613226565b604082019050919050565b600060208201905081810360008301526132b181613275565b9050919050565b7f4552433732313a207472616e7366657220746f20746865207a65726f2061646460008201527f7265737300000000000000000000000000000000000000000000000000000000602082015250565b6000613314602483612746565b915061331f826132b8565b604082019050919050565b6000602082019050818103600083015261334381613307565b9050919050565b7f4f776e61626c653a2063616c6c6572206973206e6f7420746865206f776e6572600082015250565b6000613380602083612746565b915061338b8261334a565b602082019050919050565b600060208201905081810360008301526133af81613373565b9050919050565b7f4552433732313a20617070726f766520746f2063616c6c657200000000000000600082015250565b60006133ec601983612746565b91506133f7826133b6565b602082019050919050565b6000602082019050818103600083015261341b816133df565b9050919050565b7f4552433732313a207472616e7366657220746f206e6f6e20455243373231526560008201527f63656976657220696d706c656d656e7465720000000000000000000000000000602082015250565b600061347e603283612746565b915061348982613422565b604082019050919050565b600060208201905081810360008301526134ad81613471565b9050919050565b600081905092915050565b60006134ca8261273b565b6134d481856134b4565b93506134e4818560208601612757565b80840191505092915050565b60006134fc82856134bf565b915061350882846134bf565b91508190509392505050565b7f45524337323155524953746f726167653a2055524920736574206f66206e6f6e60008201527f6578697374656e7420746f6b656e000000000000000000000000000000000000602082015250565b6000613570602e83612746565b915061357b82613514565b604082019050919050565b6000602082019050818103600083015261359f81613563565b9050919050565b7f5061757361626c653a206e6f7420706175736564000000000000000000000000600082015250565b60006135dc601483612746565b91506135e7826135a6565b602082019050919050565b6000602082019050818103600083015261360b816135cf565b9050919050565b7f5061757361626c653a2070617573656400000000000000000000000000000000600082015250565b6000613648601083612746565b915061365382613612565b602082019050919050565b600060208201905081810360008301526136778161363b565b9050919050565b600081519050919050565b600082825260208201905092915050565b60006136a58261367e565b6136af8185613689565b93506136bf818560208601612757565b6136c88161278a565b840191505092915050565b60006080820190506136e8600083018761288b565b6136f5602083018661288b565b6137026040830185612921565b8181036060830152613714818461369a565b905095945050505050565b60008151905061372e816126ac565b92915050565b60006020828403121561374a57613749612676565b5b60006137588482850161371f565b91505092915050565b7f455243373231456e756d657261626c653a20636f6e736563757469766520747260008201527f616e7366657273206e6f7420737570706f727465640000000000000000000000602082015250565b60006137bd603583612746565b91506137c882613761565b604082019050919050565b600060208201905081810360008301526137ec816137b0565b9050919050565b7f4e487b7100000000000000000000000000000000000000000000000000000000600052601260045260246000fd5b7f4552433732313a206d696e7420746f20746865207a65726f2061646472657373600082015250565b6000613858602083612746565b915061386382613822565b602082019050919050565b600060208201905081810360008301526138878161384b565b9050919050565b7f4552433732313a20746f6b656e20616c7265616479206d696e74656400000000600082015250565b60006138c4601c83612746565b91506138cf8261388e565b602082019050919050565b600060208201905081810360008301526138f3816138b7565b9050919050565b7f4e487b7100000000000000000000000000000000000000000000000000000000600052601160045260246000fd5b6000613934826127f6565b915061393f836127f6565b925082821015613952576139516138fa565b5b828203905092915050565b6000613968826127f6565b9150613973836127f6565b9250827fffffffffffffffffffffffffffffffffffffffffffffffffffffffffffffffff038211156139a8576139a76138fa565b5b828201905092915050565b7f4e487b7100000000000000000000000000000000000000000000000000000000600052603160045260246000fdfea264697066735822122059be06a9241cde72c835a10733c693c339953b29ad1ae6efc48e90d84cd65b5664736f6c63430008090033",
  "linkReferences": {},
  "deployedLinkReferences": {}
}